:100000000C942A000C9447000C9447000C94470071
:100010000C9447000C9447000C9447000C94470044
:100020000C9447000C9447000C9447000C94470034
:100030000C9447000C9447000C9447000C94470024
:100040000C9447000C9447000C9447000C94470014
:100050000C94470011241FBECFE5D8E0DEBFCDBF12
:1000600011E0A0E6B0E0ECE8FDE302C005900D92DF
:10007000A436B107D9F711E0A4E6B1E001C01D92A2
:10008000A836B107E1F70E94531D0C94C41E0C94CE
:100090000000EF92FF920F931F937B018C0120E0F1
:1000A00030E040E05FE40E94F50388238CF0C80153
:1000B000B70120E030E040E05FE40E94C1010E940F
:1000C00055049B01AC01205030404040504806C0D0
:1000D000C801B7010E9455049B01AC01B901CA01D6
:1000E0001F910F91FF90EF900895A0E0B0E0EBE733
:1000F000F0E00C94481EDC012B01FA019C91923037
:1001000008F439C1EB018881823008F433C194309E
:1001100069F4843009F02FC111969C91119789815F
:10012000981709F428C1ACE5B1E025C1843009F481
:1001300021C18230A9F4923009F01DC19A01AD01AC
:1001400088E0EA010990AE01E90109929E0181501F
:10015000C1F7E201898111969C918923818308C1AD
:10016000923009F407C112962D903C901397EB0141
:100170008A819B811496AD90BD90CD90DC901797AD
:10018000EC80FD800E811F819101281B390BB90184
:1001900037FF04C066277727621B730B6032710537
:1001A0000CF061C0121613066CF537014801062EDB
:1001B00004C096948794779467940A94D2F721E0C8
:1001C00030E040E050E004C0220F331F441F551FB1
:1001D0006A95D2F721503040404050402E213F21B7
:1001E00040235123211531054105510521F021E01E
:1001F00030E040E050E079018A01E628F72808293C
:1002000019293CC0232BD1F1260E371E350146019A
:10021000062E04C096948794779467940A94D2F734
:1002200021E030E040E050E004C0220F331F441FC3
:10023000551F6A95D2F721503040404050402A2146
:100240003B214C215D21211531054105510521F04E
:1002500021E030E040E050E059016A01A628B728CB
:10026000C828D9280BC0821593052CF01C01AA249C
:10027000BB24650103C0EE24FF24870111969C91E5
:10028000D20111968C91981709F445C0992339F041
:10029000A80197012A193B094C095D0906C0A6016E
:1002A00095012E193F09400B510B57FD08C01182D3
:1002B0003382228224833583468357831DC081E0A5
:1002C00081833382228288279927DC01821B930B4A
:1002D000A40BB50B84839583A683B7830DC0220F2F
:1002E000331F441F551F24833583468357838281E0
:1002F000938101979383828324813581468157813D
:10030000DA01C9010197A109B1098F5F9F4FAF4F72
:10031000BF4328F30BC0918333822282EA0CFB1C7B
:100320000C1D1D1DE482F5820683178383E0808304
:10033000248135814681578157FF1AC0C901AA27F8
:1003400097FDA095BA2F81709070A070B0705695EF
:10035000479537952795822B932BA42BB52B848318
:100360009583A683B7838281938101969383828349
:10037000DF0101C0D201CD01CDB7DEB7E2E10C94BF
:10038000641EA0E2B0E0E7ECF1E00C94541E698337
:100390007A838B839C832D833E834F835887E9E048
:1003A000EE2EF12CEC0EFD1ECE010196B7010E943F
:1003B0007E058E010F5E1F4FCE010596B8010E948B
:1003C0007E058A8991E089278A8BC701B801AE0131
:1003D000475E5F4F0E9475000E94A904A096E6E068
:1003E0000C94701EA0E2B0E0E8EFF1E00C94541E13
:1003F00069837A838B839C832D833E834F835887C5
:10040000F9E0EF2EF12CEC0EFD1ECE010196B701A6
:100410000E947E058E010F5E1F4FCE010596B8012A
:100420000E947E05C701B801AE01475E5F4F0E9482
:1004300075000E94A904A096E6E00C94701EA0E24C
:10044000B0E0E5E2F2E00C94481E69837A838B8386
:100450009C832D833E834F835887CE010196BE0136
:10046000675F7F4F0E947E05CE010596BE016F5EDD
:100470007F4F0E947E059985923088F0898982306D
:10048000C8F0943019F4823051F404C0843029F457
:10049000923081F48CE591E0C6C0923049F420E0BE
:1004A0009A858A89981321E02A87CE010996BBC0D4
:1004B000823049F420E09A858A89981321E02A8BBA
:1004C000CE014196B0C02D843E844F8458886D88FB
:1004D0007E888F88988CEE24FF248701AA24BB2471
:1004E000650140E050E060E070E0E0E0F0E0C10174
:1004F00081709070892BE9F0E60CF71C081D191D1E
:100500009A01AB012A0D3B1D4C1D5D1D80E090E062
:10051000A0E0B0E0E614F7040805190520F481E036
:1005200090E0A0E0B0E0BA01A901480F591F6A1F8E
:100530007B1FAA0CBB1CCC1CDD1C97FE08C081E0F5
:1005400090E0A0E0B0E0A82AB92ACA2ADB2A3196B6
:10055000E032F10549F0660C771C881C991C569412
:10056000479437942794C3CFFA85EA892B893C892D
:100570008B859C85280F391F2E5F3F4F17C0CA01FE
:1005800081709070892B61F016950795F794E79428
:1005900080E090E0A0E0B0E8E82AF92A0A2B1B2BC3
:1005A00076956795579547952F5F3F4F77FDE7CF36
:1005B0000CC0440F551F661F771F17FD4160EE0CDE
:1005C000FF1C001F111F21503040403090E05907A0
:1005D00090E0690790E4790760F32B8F3C8FDB0193
:1005E000CA018F779070A070B07080349105A1051A
:1005F000B10561F447FD0AC0E114F10401051105DC
:1006000029F0405C5F4F6F4F7F4F40781A8EFE1786
:1006100011F081E08A8F4D8F5E8F6F8F78A383E01A
:10062000898FCE0149960E94A904A096E2E10C941C
:10063000641EA8E1B0E0EFE1F3E00C94501E698382
:100640007A838B839C832D833E834F835887B9E0C5
:10065000EB2EF12CEC0EFD1ECE010196B7010E948F
:100660007E058E010F5E1F4FCE010596B8010E94D8
:100670007E052985223008F47EC03989323010F495
:10068000B8017CC08A859A8989278A87243011F02D
:10069000223031F4231709F06EC06CE571E06EC0B2
:1006A000343039F41D861E861F86188A1C861B86E8
:1006B00004C0323021F484E08987B7015FC02B8504
:1006C0003C858B899C89281B390B3C872B87ED84C3
:1006D000FE840F851889AD88BE88CF88D88CEA142F
:1006E000FB040C051D0540F4EE0CFF1C001F111F40
:1006F000215030403C872B8720E030E040E050E044
:1007000080E090E0A0E0B0E460E070E0EA14FB0478
:100710000C051D0540F0282B392B4A2B5B2BEA18C2
:10072000FB080C091D09B695A79597958795EE0CC2
:10073000FF1C001F111F6F5F7F4F6F31710531F775
:10074000DA01C9018F779070A070B0708034910584
:10075000A105B10561F427FD0AC0E114F10401050A
:10076000110529F0205C3F4F4F4F5F4F20782D87B8
:100770003E874F87588BBE01675F7F4FCB010E943A
:10078000A9046896EAE00C946C1EA8E1B0E0EBECDA
:10079000F3E00C94541E69837A838B839C832D83AE
:1007A0003E834F83588789E0E82EF12CEC0EFD1E26
:1007B000CE010196B7010E947E058E010F5E1F4F8C
:1007C000CE010596B8010E947E058985823040F0F1
:1007D0008989823028F0C701B8010E94F60501C05E
:1007E0008FEF6896E6E00C94701EA8E1B0E0EBEFA6
:1007F000F3E00C94541E69837A838B839C832D834E
:100800003E834F83588789E0E82EF12CEC0EFD1EC5
:10081000CE010196B7010E947E058E010F5E1F4F2B
:10082000CE010596B8010E947E058985823040F090
:100830008989823028F0C701B8010E94F60501C0FD
:100840008FEF6896E6E00C94701EA8E1B0E0EBE252
:10085000F4E00C94541E69837A838B839C832D83EC
:100860003E834F83588789E0E82EF12CEC0EFD1E65
:10087000CE010196B7010E947E058E010F5E1F4FCB
:10088000CE010596B8010E947E058985823040F030
:100890008989823028F0C701B8010E94F60501C09D
:1008A00081E06896E6E00C94701EACE0B0E0EBE509
:1008B000F4E00C94581E69837A838B839C83CE0169
:1008C0000196BE016B5F7F4F0E947E058D81823055
:1008D00061F1823050F1843021F48E81882351F10E
:1008E0002EC02F81388537FD20C06E812F31310514
:1008F0001CF06623F9F023C08EE190E0821B930B7D
:1009000029853A854B855C8504C056954795379572
:1009100027958A95D2F76623B1F05095409530958A
:1009200021953F4F4F4F5F4F0EC020E030E040E039
:1009300050E009C02FEF3FEF4FEF5FE704C020E02A
:1009400030E040E050E8B901CA012C96E2E00C9496
:10095000741EDF92EF92FF920F931F93FC01E480CD
:10096000F58006811781D1808081823048F480E053
:1009700090E0A0E1B0E0E82AF92A0A2B1B2BA5C0E1
:10098000843009F49FC0823021F4EE24FF248701D3
:1009900005C0E114F1040105110519F4E0E0F0E0EF
:1009A00096C0628173819FEF623879070CF05BC05B
:1009B00022E83FEF261B370B2A3131052CF020E0CF
:1009C00030E040E050E02AC0B801A701022E04C088
:1009D00076956795579547950A94D2F781E090E010
:1009E000A0E0B0E004C0880F991FAA1FBB1F2A9582
:1009F000D2F70197A109B1098E219F21A023B1232C
:100A00000097A105B10521F081E090E0A0E0B0E001
:100A10009A01AB01282B392B4A2B5B2BDA01C90138
:100A20008F779070A070B07080349105A105B105EA
:100A300039F427FF09C0205C3F4F4F4F5F4F04C080
:100A4000215C3F4F4F4F5F4FE0E0F0E02030A0E0EF
:100A50003A07A0E04A07A0E45A0710F0E1E0F0E00E
:100A600079018A0127C06038710564F5FB01E158FE
:100A7000FF4FD801C7018F779070A070B07080349D
:100A80009105A105B10539F4E7FE0DC080E490E0C1
:100A9000A0E0B0E004C08FE390E0A0E0B0E0E80E9A
:100AA000F91E0A1F1B1F17FF05C016950795F7941F
:100AB000E794319687E016950795F794E7948A9521
:100AC000D1F705C0EE24FF248701EFEFF0E06E2F91
:100AD000679566276795902F9F77D794DD24D794E5
:100AE0008E2F8695492F462B582F5D29B701CA01B5
:100AF0001F910F91FF90EF90DF900895FC01DB01B3
:100B0000408151812281622F6F7770E0221F22275E
:100B1000221F9381892F880F822B282F30E0991F65
:100B20009927991F11969C93119721153105A9F5C5
:100B3000411551056105710511F482E037C082E865
:100B40009FEF13969C938E9312979A01AB0167E0E7
:100B5000220F331F441F551F6A95D1F783E08C93F2
:100B60000DC0220F331F441F551F12968D919C916B
:100B70001397019713969C938E931297203080E0E1
:100B8000380780E0480780E4580758F314962D93FF
:100B90003D934D935C93179708952F3F310579F45A
:100BA000411551056105710519F484E08C93089590
:100BB00064FF03C081E08C9312C01C9210C02F57B9
:100BC000304013963C932E93129783E08C9387E0EA
:100BD000440F551F661F771F8A95D1F770641496CE
:100BE0004D935D936D937C93179708951F93DC014C
:100BF000FB019C91923008F447C08081823008F458
:100C000043C0943051F411961C91843099F5818140
:100C1000682F70E0611B71093FC0843021F0923071
:100C200031F48230B9F18181882389F12DC0119688
:100C30001C9111978230F1F081811817D9F4129626
:100C40002D913C911397828193818217930794F0A1
:100C500028173907BCF014968D919D910D90BC9189
:100C6000A02D2481358146815781281739074A07ED
:100C70005B0718F4112341F00AC082179307A407F9
:100C8000B50740F4112319F061E070E005C06FEF83
:100C90007FEF02C060E070E0CB011F910895DF9309
:100CA000CF93CDB7DEB70E940E15CF91DF91089597
:100CB000DF93CF93CDB7DEB7E8970FB6F894DEBFDA
:100CC0000FBECDBF0E94491D80E690E00E94A21C8D
:100CD00080E090E0AAE7B4E48DAB9EABAFABB8AFD9
:100CE0006DA97EA98FA998AD20E030E04AEF54E4C9
:100CF0000E941F02DC01CB0189AB9AABABABBCAB52
:100D000069A97AA98BA99CA920E030E040E85FE3BB
:100D10000E94250488232CF481E090E098AB8FA7F3
:100D20003FC069A97AA98BA99CA920E03FEF4FE7B2
:100D300057E40E94C50318164CF56DA97EA98FA92A
:100D400098AD20E030E040E251E40E941F02DC0157
:100D5000CB01BC01CD010E944900DC01CB0198AB65
:100D60008FA70FC088EC90E09EA78DA78DA59EA5AC
:100D70000197F1F79EA78DA78FA598A9019798AB2A
:100D80008FA78FA598A9009769F714C069A97AA9B8
:100D90008BA99CA90E944900DC01CB0198AB8FA7CD
:100DA0008FA598A99CA78BA78BA59CA50197F1F768
:100DB0009CA78BA70E94491D88E690E00E94A21C78
:100DC00081E060E00E94EE1C88E790E00E94A21C97
:100DD00080E090E8ABE3B4E48FA398A7A9A7BAA7F3
:100DE0006FA178A589A59AA520E030E04AEF54E4E8
:100DF0000E941F02DC01CB018BA39CA3ADA3BEA369
:100E00006BA17CA18DA19EA120E030E040E85FE3D2
:100E10000E94250488232CF481E090E09AA389A302
:100E20003FC06BA17CA18DA19EA120E03FEF4FE7C9
:100E300057E40E94C50318164CF56FA178A589A543
:100E40009AA520E030E040E251E40E941F02DC015C
:100E5000CB01BC01CD010E944900DC01CB019AA36A
:100E600089A30FC088EC90E098A38F8F8F8D98A1F5
:100E70000197F1F798A38F8F89A19AA101979AA35F
:100E800089A389A19AA1009769F714C06BA17CA1DD
:100E90008DA19EA10E944900DC01CB019AA389A3E8
:100EA00089A19AA19E8F8D8F8D8D9E8D0197F1F7CF
:100EB0009E8F8D8F0E94491D88E890E00E94A21CA1
:100EC00081E060E00E94EE1C88E990E00E94A21C94
:100ED00080E090E8ABE3B4E4898F9A8FAB8FBC8F4E
:100EE000698D7A8D8B8D9C8D20E030E04AEF54E443
:100EF0000E941F02DC01CB018D8B9E8BAF8BB88FC4
:100F00006D897E898F89988D20E030E040E85FE32D
:100F10000E94250488232CF481E090E09C8B8B8B2D
:100F20003FC06D897E898F89988D20E03FEF4FE724
:100F300057E40E94C50318164CF5698D7A8D8B8D88
:100F40009C8D20E030E040E251E40E941F02DC0171
:100F5000CB01BC01CD010E944900DC01CB019C8B7F
:100F60008B8B0FC088EC90E09A8B898B89899A894A
:100F70000197F1F79A8B898B8B899C8901979C8BC0
:100F80008B8B8B899C89009769F714C06D897E894A
:100F90008F89988D0E944900DC01CB019C8B8B8B43
:100FA0008B899C89988B8F878F8598890197F1F71A
:100FB000988B8F870E94491D88EA90E00E94A21CAE
:100FC00081E060E00E94EE1C84EB90E00E94A21C95
:100FD00080E090E8ABE3B4E48B879C87AD87BE8765
:100FE0006B857C858D859E8520E030E04AEF54E45A
:100FF0000E941F02DC01CB018F839887A987BA87E3
:101000006F81788589859A8520E030E040E85FE34C
:101010000E94250488232CF481E090E09E838D8338
:101020003FC06F81788589859A8520E03FEF4FE743
:1010300057E40E94C50318164CF56B857C858D8599
:101040009E8520E030E040E251E40E941F02DC0176
:10105000CB01BC01CD010E944900DC01CB019E8384
:101060008D830FC088EC90E09C838B838B819C8167
:101070000197F1F79C838B838D819E8101979E83DD
:101080008D838D819E81009769F714C06F8178856B
:1010900089859A850E944900DC01CB019E838D835E
:1010A0008D819E819A83898389819A810197F1F745
:1010B0009A8389830E94491D0E946708E8960FB6AB
:1010C000F894DEBF0FBECDBFCF91DF910895DF93BF
:1010D000CF93CDB7DEB7E9970FB6F894DEBF0FBE5A
:1010E000CDBF0E94491D86EC90E00E94A21C81E0C9
:1010F00060E00E94EE1C83ED90E00E94A21C0E9422
:101100009F1489AF89AD813019F40E94E10C1AC295
:1011100089AD823019F40E94F70C14C289AD833076
:1011200019F40E940D0D0EC289AD843019F40E948D
:10113000230D08C289AD853019F40E94A50F02C2A3
:1011400089AD863019F40E942A11FCC10E94491D04
:1011500080EE90E00E94A21C80E090E0AAE7B4E458
:101160008DAB9EABAFABB8AF6DA97EA98FA998AD83
:1011700020E030E04AEF54E40E941F02DC01CB0182
:1011800089AB9AABABABBCAB69A97AA98BA99CA97B
:1011900020E030E040E85FE30E94250488232CF43F
:1011A00081E090E098AB8FA73FC069A97AA98BA98D
:1011B0009CA920E03FEF4FE757E40E94C5031816B3
:1011C0004CF56DA97EA98FA998AD20E030E040E2F2
:1011D00051E40E941F02DC01CB01BC01CD010E9441
:1011E0004900DC01CB0198AB8FA70FC088EC90E0E1
:1011F0009EA78DA78DA59EA50197F1F79EA78DA708
:101200008FA598A9019798AB8FA78FA598A900974C
:1012100069F714C069A97AA98BA99CA90E94490001
:10122000DC01CB0198AB8FA78FA598A99CA78BA7B2
:101230008BA59CA50197F1F79CA78BA70E94491D40
:1012400088E690E00E94A21C81E060E00E94EE1C13
:1012500088E790E00E94A21C80E090E8ABE3B4E451
:101260008FA398A7A9A7BAA76FA178A589A59AA5C2
:1012700020E030E04AEF54E40E941F02DC01CB0181
:101280008BA39CA3ADA3BEA36BA17CA18DA19EA1AA
:1012900020E030E040E85FE30E94250488232CF43E
:1012A00081E090E09AA389A33FC06BA17CA18DA1AE
:1012B0009EA120E03FEF4FE757E40E94C5031816B8
:1012C0004CF56FA178A589A59AA520E030E040E211
:1012D00051E40E941F02DC01CB01BC01CD010E9440
:1012E0004900DC01CB019AA389A30FC088EC90E0F0
:1012F00098A38F8F8F8D98A10197F1F798A38F8F67
:1013000089A19AA101979AA389A389A19AA100977B
:1013100069F714C06BA17CA18DA19EA10E94490018
:10132000DC01CB019AA389A389A19AA19E8F8D8FFD
:101330008D8D9E8D0197F1F79E8F8D8F0E94491D97
:1013400088E890E00E94A21C81E060E00E94EE1C10
:1013500088E990E00E94A21C80E090E8ABE3B4E44E
:10136000898F9A8FAB8FBC8F698D7A8D8B8D9C8D79
:1013700020E030E04AEF54E40E941F02DC01CB0180
:101380008D8B9E8BAF8BB88F6D897E898F89988D61
:1013900020E030E040E85FE30E94250488232CF43D
:1013A00081E090E09C8B8B8B3FC06D897E898F891B
:1013B000988D20E03FEF4FE757E40E94C5031816D1
:1013C0004CF5698D7A8D8B8D9C8D20E030E040E26C
:1013D00051E40E941F02DC01CB01BC01CD010E943F
:1013E0004900DC01CB019C8B8B8B0FC088EC90E01B
:1013F0009A8B898B89899A890197F1F79A8B898BC6
:101400008B899C8901979C8B8B8B8B899C890097FE
:1014100069F714C06D897E898F89988D0E94490073
:10142000DC01CB019C8B8B8B8B899C89988B8F8764
:101430008F8598890197F1F7988B8F870E94491DB6
:1014400088EA90E00E94A21C81E060E00E94EE1C0D
:1014500084EB90E00E94A21C80E090E8ABE3B4E44F
:101460008B879C87AD87BE876B857C858D859E85A8
:1014700020E030E04AEF54E40E941F02DC01CB017F
:101480008F839887A987BA876F81788589859A85A0
:1014900020E030E040E85FE30E94250488232CF43C
:1014A00081E090E09E838D833FC06F817885898540
:1014B0009A8520E03FEF4FE757E40E94C5031816D6
:1014C0004CF56B857C858D859E8520E030E040E283
:1014D00051E40E941F02DC01CB01BC01CD010E943E
:1014E0004900DC01CB019E838D830FC088EC90E026
:1014F0009C838B838B819C810197F1F79C838B83E9
:101500008D819E8101979E838D838D819E81009721
:1015100069F714C06F81788589859A850E94490092
:10152000DC01CB019E838D838D819E819A8389838B
:1015300089819A810197F1F79A8389830E94491DD5
:101540000E94390DE9960FB6F894DEBF0FBECDBFED
:10155000CF91DF910895DF93CF93CDB7DEB7E997B1
:101560000FB6F894DEBF0FBECDBF0E949F1489AFA7
:1015700089AD813019F40E94E10C1AC289AD823024
:1015800019F40E94F70C14C289AD833019F40E943B
:101590000D0D0EC289AD843019F40E94230D08C2CE
:1015A00089AD853019F40E94A50F02C289AD86303D
:1015B00019F40E942A11FCC10E94491D80EE90E09E
:1015C0000E94A21C80E090E0AAE7B4E48DAB9EAB41
:1015D000AFABB8AF6DA97EA98FA998AD20E030E080
:1015E0004AEF54E40E941F02DC01CB0189AB9AABA5
:1015F000ABABBCAB69A97AA98BA99CA920E030E070
:1016000040E85FE30E94250488232CF481E090E009
:1016100098AB8FA73FC069A97AA98BA99CA920E0A4
:101620003FEF4FE757E40E94C50318164CF56DA92C
:101630007EA98FA998AD20E030E040E251E40E94FD
:101640001F02DC01CB01BC01CD010E944900DC017D
:10165000CB0198AB8FA70FC088EC90E09EA78DA719
:101660008DA59EA50197F1F79EA78DA78FA598A997
:10167000019798AB8FA78FA598A9009769F714C019
:1016800069A97AA98BA99CA90E944900DC01CB0118
:1016900098AB8FA78FA598A99CA78BA78BA59CA576
:1016A0000197F1F79CA78BA70E94491D88E690E05F
:1016B0000E94A21C81E060E00E94EE1C88E790E09E
:1016C0000E94A21C80E090E8ABE3B4E48FA398A74B
:1016D000A9A7BAA76FA178A589A59AA520E030E0AF
:1016E0004AEF54E40E941F02DC01CB018BA39CA3B0
:1016F000ADA3BEA36BA17CA18DA19EA120E030E093
:1017000040E85FE30E94250488232CF481E090E008
:101710009AA389A33FC06BA17CA18DA19EA120E0CB
:101720003FEF4FE757E40E94C50318164CF56FA131
:1017300078A589A59AA520E030E040E251E40E9416
:101740001F02DC01CB01BC01CD010E944900DC017C
:10175000CB019AA389A30FC088EC90E098A38F8F48
:101760008F8D98A10197F1F798A38F8F89A19AA1E6
:1017700001979AA389A389A19AA1009769F714C038
:101780006BA17CA18DA19EA10E944900DC01CB012F
:101790009AA389A389A19AA19E8F8D8F8D8D9E8DED
:1017A0000197F1F79E8F8D8F0E94491D88E890E088
:1017B0000E94A21C81E060E00E94EE1C88E990E09B
:1017C0000E94A21C80E090E8ABE3B4E4898F9A8F7A
:1017D000AB8FBC8F698D7A8D8B8D9C8D20E030E036
:1017E0004AEF54E40E941F02DC01CB018D8B9E8BDB
:1017F000AF8BB88F6D897E898F89988D20E030E01E
:1018000040E85FE30E94250488232CF481E090E007
:101810009C8B8B8B3FC06D897E898F89988D20E052
:101820003FEF4FE757E40E94C50318164CF5698D4A
:101830007A8D8B8D9C8D20E030E040E251E40E9457
:101840001F02DC01CB01BC01CD010E944900DC017B
:10185000CB019C8B8B8B0FC088EC90E09A8B898B93
:1018600089899A890197F1F79A8B898B8B899C8951
:1018700001979C8B8B8B8B899C89009769F714C08F
:101880006D897E898F89988D0E944900DC01CB018A
:101890009C8B8B8B8B899C89988B8F878F85988964
:1018A0000197F1F7988B8F870E94491D88EA90E095
:1018B0000E94A21C81E060E00E94EE1C84EB90E09C
:1018C0000E94A21C80E090E8ABE3B4E48B879C8785
:1018D000AD87BE876B857C858D859E8520E030E059
:1018E0004AEF54E40E941F02DC01CB018F839887EA
:1018F000A987BA876F81788589859A8520E030E04D
:1019000040E85FE30E94250488232CF481E090E006
:101910009E838D833FC06F81788589859A8520E07D
:101920003FEF4FE757E40E94C50318164CF56B854F
:101930007C858D859E8520E030E040E251E40E9468
:101940001F02DC01CB01BC01CD010E944900DC017A
:10195000CB019E838D830FC088EC90E09C838B83AA
:101960008B819C810197F1F79C838B838D819E8174
:1019700001979E838D838D819E81009769F714C0A6
:101980006F81788589859A850E944900DC01CB01A9
:101990009E838D838D819E819A83898389819A819B
:1019A0000197F1F79A8389830E94491D0E94390D9E
:1019B000E9960FB6F894DEBF0FBECDBFCF91DF9191
:1019C0000895DF93CF93CDB7DEB7809164018F5F29
:1019D0008093640180E062E00E94EE1C80916401CB
:1019E000882F90E00E94CB1CCF91DF910895DF9368
:1019F000CF93CDB7DEB7809165018F5F809365018E
:101A000080E06BE00E94EE1C80916501882F90E0E1
:101A10000E94CB1CCF91DF910895DF93CF93CDB778
:101A2000DEB7809166018F5F8093660181E062E09E
:101A30000E94EE1C80916601882F90E00E94CB1CD2
:101A4000CF91DF910895DF93CF93CDB7DEB780912B
:101A500067018F5F8093670181E06BE00E94EE1C5D
:101A600080916701882F90E00E94CB1CCF91DF917D
:101A70000895DF93CF93CDB7DEB7E9970FB6F8940B
:101A8000DEBF0FBECDBF0E94491D8CEE90E00E94CC
:101A9000A21C80E062E00E94EE1C80916401882F0D
:101AA00090E00E94CB1C80E06BE00E94EE1C8091D5
:101AB0006501882F90E00E94CB1C81E060E00E94CD
:101AC000EE1C88EF90E00E94A21C81E062E00E9480
:101AD000EE1C80916601882F90E00E94CB1C81E073
:101AE0006BE00E94EE1C80916701882F90E00E94BD
:101AF000CB1C0E949F1489AF89AD813019F40E94DC
:101B0000E10C1AC289AD823019F40E94F70C14C29C
:101B100089AD833019F40E940D0D0EC289AD843059
:101B200019F40E94230D08C289AD853019F40E9472
:101B3000A50F02C289AD863019F40E942A11FCC19A
:101B40000E94491D80EE90E00E94A21C80E090E07F
:101B5000AAE7B4E48DAB9EABAFABB8AF6DA97EA9DD
:101B60008FA998AD20E030E04AEF54E40E941F02B4
:101B7000DC01CB0189AB9AABABABBCAB69A97AA951
:101B80008BA99CA920E030E040E85FE30E94250497
:101B900088232CF481E090E098AB8FA73FC069A91F
:101BA0007AA98BA99CA920E03FEF4FE757E40E9458
:101BB000C50318164CF56DA97EA98FA998AD20E034
:101BC00030E040E251E40E941F02DC01CB01BC0185
:101BD000CD010E944900DC01CB0198AB8FA70FC05B
:101BE00088EC90E09EA78DA78DA59EA50197F1F7A3
:101BF0009EA78DA78FA598A9019798AB8FA78FA5B2
:101C000098A9009769F714C069A97AA98BA99CA91A
:101C10000E944900DC01CB0198AB8FA78FA598A942
:101C20009CA78BA78BA59CA50197F1F79CA78BA7D9
:101C30000E94491D88E690E00E94A21C81E060E0BD
:101C40000E94EE1C88E790E00E94A21C80E090E8D1
:101C5000ABE3B4E48FA398A7A9A7BAA76FA178A50F
:101C600089A59AA520E030E04AEF54E40E941F02C3
:101C7000DC01CB018BA39CA3ADA3BEA36BA17CA174
:101C80008DA19EA120E030E040E85FE30E942504A2
:101C900088232CF481E090E09AA389A33FC06BA134
:101CA0007CA18DA19EA120E03FEF4FE757E40E9469
:101CB000C50318164CF56FA178A589A59AA520E053
:101CC00030E040E251E40E941F02DC01CB01BC0184
:101CD000CD010E944900DC01CB019AA389A30FC06A
:101CE00088EC90E098A38F8F8F8D98A10197F1F7E2
:101CF00098A38F8F89A19AA101979AA389A389A1FB
:101D00009AA1009769F714C06BA17CA18DA19EA137
:101D10000E944900DC01CB019AA389A389A19AA161
:101D20009E8F8D8F8D8D9E8D0197F1F79E8F8D8F5C
:101D30000E94491D88E890E00E94A21C81E060E0BA
:101D40000E94EE1C88E990E00E94A21C80E090E8CE
:101D5000ABE3B4E4898F9A8FAB8FBC8F698D7A8D9A
:101D60008B8D9C8D20E030E04AEF54E40E941F02EE
:101D7000DC01CB018D8B9E8BAF8BB88F6D897E89FB
:101D80008F89988D20E030E040E85FE30E942504D1
:101D900088232CF481E090E09C8B8B8B3FC06D8975
:101DA0007E898F89988D20E03FEF4FE757E40E94AE
:101DB000C50318164CF5698D7A8D8B8D9C8D20E0AE
:101DC00030E040E251E40E941F02DC01CB01BC0183
:101DD000CD010E944900DC01CB019C8B8B8B0FC095
:101DE00088EC90E09A8B898B89899A890197F1F721
:101DF0009A8B898B8B899C8901979C8B8B8B8B8988
:101E00009C89009769F714C06D897E898F89988DA8
:101E10000E944900DC01CB019C8B8B8B8B899C89B8
:101E2000988B8F878F8598890197F1F7988B8F878B
:101E30000E94491D88EA90E00E94A21C81E060E0B7
:101E40000E94EE1C84EB90E00E94A21C80E090E8CF
:101E5000ABE3B4E48B879C87AD87BE876B857C85BD
:101E60008D859E8520E030E04AEF54E40E941F02F9
:101E7000DC01CB018F839887A987BA876F8178852A
:101E800089859A8520E030E040E85FE30E942504E0
:101E900088232CF481E090E09E838D833FC06F8186
:101EA000788589859A8520E03FEF4FE757E40E94C7
:101EB000C50318164CF56B857C858D859E8520E0C5
:101EC00030E040E251E40E941F02DC01CB01BC0182
:101ED000CD010E944900DC01CB019E838D830FC0A0
:101EE00088EC90E09C838B838B819C810197F1F738
:101EF0009C838B838D819E8101979E838D838D81B1
:101F00009E81009769F714C06F81788589859A85CD
:101F10000E944900DC01CB019E838D838D819E81CF
:101F20009A83898389819A810197F1F79A838983BA
:101F30000E94491D0E94390DE9960FB6F894DEBF44
:101F40000FBECDBFCF91DF910895DF93CF93CDB773
:101F5000DEB7AA970FB6F894DEBF0FBECDBF1092C2
:101F600064011092650110926601109267010E944F
:101F7000491D84E091E00E94A21C80E090E0AAEF5D
:101F8000B3E48FA398A7A9A7BAA76FA178A589A53D
:101F90009AA520E030E04AEF54E40E941F02DC01E1
:101FA000CB018BA39CA3ADA3BEA36BA17CA18DA1F0
:101FB0009EA120E030E040E85FE30E9425048823F2
:101FC0002CF481E090E09AA389A33FC06BA17CA18F
:101FD0008DA19EA120E03FEF4FE757E40E94C5038B
:101FE00018164CF56FA178A589A59AA520E030E0D8
:101FF00040E251E40E941F02DC01CB01BC01CD0193
:102000000E944900DC01CB019AA389A30FC088EC90
:1020100090E098A38F8F8F8D98A10197F1F798A3E7
:102020008F8F89A19AA101979AA389A389A19AA1C7
:10203000009769F714C06BA17CA18DA19EA10E949D
:102040004900DC01CB019AA389A389A19AA19E8FA3
:102050008D8F8D8D9E8D0197F1F79E8F8D8F0E94B4
:10206000491D8BE091E00E94A21C80E090E0AAEF65
:10207000B3E4898F9A8FAB8FBC8F698D7A8D8B8DEE
:102080009C8D20E030E04AEF54E40E941F02DC0106
:10209000CB018D8B9E8BAF8BB88F6D897E898F899D
:1020A000988D20E030E040E85FE30E94250488231B
:1020B0002CF481E090E09C8B8B8B3FC06D897E89F6
:1020C0008F89988D20E03FEF4FE757E40E94C503CA
:1020D00018164CF5698D7A8D8B8D9C8D20E030E043
:1020E00040E251E40E941F02DC01CB01BC01CD01A2
:1020F0000E944900DC01CB019C8B8B8B0FC088ECCC
:1021000090E09A8B898B89899A890197F1F79A8B4C
:10211000898B8B899C8901979C8B8B8B8B899C8964
:10212000009769F714C06D897E898F89988D0E9408
:102130004900DC01CB019C8B8B8B8B899C89988B14
:102140008F878F8598890197F1F7988B8F870E94E9
:10215000491D83E191E00E94A21C80E090E0AAEF7B
:10216000B3E48B879C87AD87BE876B857C858D8527
:102170009E8520E030E04AEF54E40E941F02DC011B
:10218000CB018F839887A987BA876F8178858985E6
:102190009A8520E030E040E85FE30E942504882330
:1021A0002CF481E090E09E838D833FC06F81788521
:1021B00089859A8520E03FEF4FE757E40E94C503E9
:1021C00018164CF56B857C858D859E8520E030E06A
:1021D00040E251E40E941F02DC01CB01BC01CD01B1
:1021E0000E944900DC01CB019E838D830FC088ECE7
:1021F00090E09C838B838B819C810197F1F79C837A
:102200008B838D819E8101979E838D838D819E819D
:10221000009769F714C06F81788589859A850E9437
:102220004900DC01CB019E838D838D819E819A8341
:10223000898389819A810197F1F79A8389830E9422
:102240005806AA960FB6F894DEBF0FBECDBFCF9149
:10225000DF910895DF93CF930F92CDB7DEB78091D2
:1022600064018983909165018981981718F08091A4
:1022700065018983909166018981981718F0809192
:1022800066018983909167018981981718F0809180
:10229000670189830E94491D909164018981891792
:1022A00029F48CE191E00E94A21C1DC0909165016F
:1022B0008981891729F48CE291E00E94A21C13C045
:1022C000909166018981891729F48CE391E00E943D
:1022D000A21C09C0909167018981891721F48CE4BF
:1022E00091E00E94A21C0F90CF91DF910895DF939F
:1022F000CF93CDB7DEB727970FB6F894DEBF0FBEEA
:10230000CDBF89836A834B838A81883008F0D2C02D
:102310008B81813009F063C08981282F30E03F83B1
:102320002E838E819F8181309105E9F02E813F813E
:102330002230310561F18E819F810097E1F5AAE39A
:10234000B0E0EAE3F0E08081482F8A81282F30E076
:1023500081E090E0022E02C0880F991F0A94E2F7F4
:10236000842B8C93A7C0A7E3B0E0E7E3F0E0808183
:10237000482F8A81282F30E081E090E0022E02C0B1
:10238000880F991F0A94E2F7842B8C9393C0A4E3DF
:10239000B0E0E4E3F0E08081482F8A81282F30E02C
:1023A00081E090E0022E02C0880F991F0A94E2F7A4
:1023B000842B8C937FC0A1E3B0E0E1E3F0E0808167
:1023C000482F8A81282F30E081E090E0022E02C061
:1023D000880F991F0A94E2F7842B8C936BC08B8132
:1023E000882309F067C08981282F30E03D832C8342
:1023F0008C819D8181309105F9F02C813D812230C5
:10240000310579F18C819D81009709F03FC0AAE3E5
:10241000B0E0EAE3F0E08081482F8A81282F30E0A5
:1024200081E090E0022E02C0880F991F0A94E2F723
:10243000809584238C933EC0A7E3B0E0E7E3F0E00F
:102440008081482F8A81282F30E081E090E0022EA1
:1024500002C0880F991F0A94E2F7809584238C9319
:1024600029C0A4E3B0E0E4E3F0E08081482F8A8152
:10247000282F30E081E090E0022E02C0880F991FE3
:102480000A94E2F7809584238C9314C0A1E3B0E012
:10249000E1E3F0E08081482F8A81282F30E081E05D
:1024A00090E0022E02C0880F991F0A94E2F78095EF
:1024B00084238C9327960FB6F894DEBF0FBECDBF52
:1024C000CF91DF910895DF93CF9300D000D0CDB7A7
:1024D000DEB789836A838981843030F58981282F2A
:1024E00030E03C832B838B819C818130910571F09E
:1024F0002B813C812230310571F08B819C810097CA
:1025000079F4EAE3F0E08A8180830EC0E7E3F0E04B
:102510008A81808309C0E4E3F0E08A81808304C07B
:10252000E1E3F0E08A8180830F900F900F900F908D
:10253000CF91DF910895DF93CF93CDB7DEB7279783
:102540000FB6F894DEBF0FBECDBF89836A834B837D
:102550008A81883008F0D9C08B81813021F08B814D
:10256000882309F0D2C08B81813009F063C0898152
:10257000282F30E03F832E838E819F81813091050B
:10258000E9F02E813F812230310561F18E819F81FA
:102590000097E1F5ABE3B0E0EBE3F0E08081482F9A
:1025A0008A81282F30E081E090E0022E02C0880F5F
:1025B000991F0A94E2F7842B8C93A7C0A8E3B0E09C
:1025C000E8E3F0E08081482F8A81282F30E081E025
:1025D00090E0022E02C0880F991F0A94E2F7842B24
:1025E0008C9393C0A5E3B0E0E5E3F0E08081482F51
:1025F0008A81282F30E081E090E0022E02C0880F0F
:10260000991F0A94E2F7842B8C937FC0A2E3B0E079
:10261000E2E3F0E08081482F8A81282F30E081E0DA
:1026200090E0022E02C0880F991F0A94E2F7842BD3
:102630008C936BC08B81882309F067C08981282F18
:1026400030E03D832C838C819D8181309105F9F0B0
:102650002C813D812230310579F18C819D8100975B
:1026600009F03FC0ABE3B0E0EBE3F0E08081482F3E
:102670008A81282F30E081E090E0022E02C0880F8E
:10268000991F0A94E2F7809584238C933EC0A8E3B7
:10269000B0E0E8E3F0E08081482F8A81282F30E025
:1026A00081E090E0022E02C0880F991F0A94E2F7A1
:1026B000809584238C9329C0A5E3B0E0E5E3F0E0A6
:1026C0008081482F8A81282F30E081E090E0022E1F
:1026D00002C0880F991F0A94E2F7809584238C9397
:1026E00014C0A2E3B0E0E2E3F0E08081482F8A81E9
:1026F000282F30E081E090E0022E02C0880F991F61
:102700000A94E2F7809584238C9327960FB6F89469
:10271000DEBF0FBECDBFCF91DF910895DF93CF9382
:1027200000D000D0CDB7DEB789836A838981843039
:1027300030F58981282F30E03C832B838B819C816D
:102740008130910571F02B813C812230310571F08F
:102750008B819C81009779F4EBE3F0E08A818083A0
:102760000EC0E8E3F0E08A81808309C0E5E3F0E091
:102770008A81808304C0E2E3F0E08A8180830F9045
:102780000F900F900F90CF91DF910895DF93CF932B
:1027900000D000D00F92CDB7DEB789836A838A81DB
:1027A000883010F01D825FC08981282F30E03C8383
:1027B0002B834B815C8141305105E9F08B819C81F9
:1027C0008230910559F12B813C8121153105C9F5E4
:1027D000E9E3F0E08081282F30E08A81882F90E0C3
:1027E000A90102C0559547958A95E2F7CA01582F6D
:1027F00051705D8338C0E6E3F0E08081282F30E03F
:102800008A81882F90E0A90102C0559547958A9545
:10281000E2F7CA01582F51705D8325C0E3E3F0E071
:102820008081282F30E08A81882F90E0A90102C0A2
:10283000559547958A95E2F7CA01582F51705D83E7
:1028400012C0E0E3F0E08081282F30E08A81882FF9
:1028500090E0A90102C0559547958A95E2F7CA0113
:10286000582F51705D838D810F900F900F900F90B6
:102870000F90CF91DF910895DF93CF9300D000D0D8
:10288000CDB7DEB789838981843010F01C8226C0E1
:102890008981282F30E03B832A838A819B81813084
:1028A000910571F02A813B812230310571F08A81D6
:1028B0009B81009779F4E9E3F0E090819C830EC05E
:1028C000E6E3F0E020812C8309C0E3E3F0E030810F
:1028D0003C8304C0E3E3F0E080818C838C810F9023
:1028E0000F900F900F90CF91DF910895DF93CF93CA
:1028F000CDB7DEB782E061E041E00E94771182E06F
:1029000061E040E00E949B12CF91DF910895DF9338
:10291000CF93CDB7DEB782E061E041E00E949B1229
:10292000CF91DF910895DF93CF93CDB7DEB782E0EB
:1029300061E040E00E949B12CF91DF910895DF9308
:10294000CF9300D0CDB7DEB781E064E040E00E94D5
:10295000771181E065E040E00E94771181E066E058
:1029600040E00E94771181E067E040E00E9477112B
:1029700083E062E040E00E94771183E063E040E0A2
:102980000E94771183E064E040E00E94771181E0CB
:1029900065E040E00E9477111A823CC08A81982F3E
:1029A0009C5F81E0692F41E00E9477118A81982F16
:1029B0009C5F81E0692F40E00E949B1219821CC03D
:1029C0008981982F9E5F83E0692F0E94C613882318
:1029D00081F48A81882F90E0880F991F880F991FB2
:1029E000982F8981890F8F5F0F900F90CF91DF9182
:1029F000089589818F5F89838981843008F38A8172
:102A0000982F9C5F81E0692F40E00E9477118A81B6
:102A10008F5F8A838A81843008F2BECFDF93CF93A1
:102A2000CDB7DEB76C970FB6F894DEBF0FBECDBF43
:102A300080E061E041E00E94771180E062E041E0E7
:102A40000E94771180E090E0A0EAB1E4898F9A8F2C
:102A5000AB8FBC8F698D7A8D8B8D9C8D20E030E0A3
:102A60004AEF54E40E941F02DC01CB018D8B9E8B48
:102A7000AF8BB88F6D897E898F89988D20E030E08B
:102A800040E85FE30E94250488232CF481E090E075
:102A90009C8B8B8B3FC06D897E898F89988D20E0C0
:102AA0003FEF4FE757E40E94C50318164CF5698DB8
:102AB0007A8D8B8D9C8D20E030E040E251E40E94C5
:102AC0001F02DC01CB01BC01CD010E944900DC01E9
:102AD000CB019C8B8B8B0FC088EC90E09A8B898B01
:102AE00089899A890197F1F79A8B898B8B899C89BF
:102AF00001979C8B8B8B8B899C89009769F714C0FD
:102B00006D897E898F89988D0E944900DC01CB01F7
:102B10009C8B8B8B8B899C89988B8F878F859889D1
:102B20000197F1F7988B8F8782E06FEF0E94631215
:102B300080E090E0A0EAB1E48B879C87AD87BE87F8
:102B40006B857C858D859E8520E030E04AEF54E4DE
:102B50000E941F02DC01CB018F839887A987BA8767
:102B60006F81788589859A8520E030E040E85FE3D1
:102B70000E94250488232CF481E090E09E838D83BD
:102B80003FC06F81788589859A8520E03FEF4FE7C8
:102B900057E40E94C50318164CF56B857C858D851E
:102BA0009E8520E030E040E251E40E941F02DC01FB
:102BB000CB01BC01CD010E944900DC01CB019E8309
:102BC0008D830FC088EC90E09C838B838B819C81EC
:102BD0000197F1F79C838B838D819E8101979E8362
:102BE0008D838D819E81009769F714C06F817885F0
:102BF00089859A850E944900DC01CB019E838D83E3
:102C00008D819E819A83898389819A810197F1F7C9
:102C10009A83898388E30E941C168CE00E941C160C
:102C200081E00E941C166C960FB6F894DEBF0FBEB2
:102C3000CDBFCF91DF9108950F931F93DF93CF9373
:102C4000CDB7DEB7C156D0400FB6F894DEBF0FBE89
:102C5000CDBFFE01EF59FF4F808380E061E040E08F
:102C60000E949B12FE01E35AFF4F80E090E0A0E833
:102C7000BFE380839183A283B3838E01075A1F4FE2
:102C8000FE01E35AFF4F60817181828193812BEABB
:102C90003AEA4AE250E40E941F02DC01CB01F8014B
:102CA00080839183A283B383FE01E75AFF4F608143
:102CB00071818281938120E030E040E85FE30E94EF
:102CC0002504882334F4FE01E85AFF4F81E0808315
:102CD000E0C0FE01E75AFF4F6081718182819381DC
:102CE00020E030E04FE753E40E94C50318160CF0D3
:102CF000C0C0FE01E35AFF4F6081718182819381E0
:102D000020E030E04AE754E40E941903DC01CB01E3
:102D1000FE01EC5AFF4F80839183A283B3838E011F
:102D2000005B1F4FFE01EC5AFF4F60817181828171
:102D3000938120E030E04AEF54E40E941F02DC015E
:102D4000CB01F80180839183A283B383FE01E05B12
:102D5000FF4F608171818281938120E030E040E803
:102D60005FE30E942504882344F4FE01E25BFF4FE9
:102D700081E090E09183808364C0FE01E05BFF4FBF
:102D8000608171818281938120E03FEF4FE757E4BA
:102D90000E94C50318160CF043C0FE01EC5AFF4F09
:102DA000608171818281938120E030E040E251E4D2
:102DB0000E941F02DC01CB018E01025B1F4FBC0190
:102DC000CD010E944900DC01CB01F8019183808391
:102DD0001FC0FE01E45BFF4F88EC90E0918380838D
:102DE000FE01E45BFF4F808191810197F1F7FE01C5
:102DF000E45BFF4F91838083DE01A25BBF4FFE0146
:102E0000E25BFF4F80819181019711969C938E9395
:102E1000FE01E25BFF4F808191810097D1F64BC0AC
:102E20008E01025B1F4FFE01E05BFF4F60817181ED
:102E3000828193810E944900DC01CB01F8019183DA
:102E40008083DE01A65BBF4FFE01E25BFF4F808106
:102E5000918111969C938E93FE01E65BFF4F8081DA
:102E600091810197F1F7FE01E65BFF4F918380832B
:102E700022C08E01085A1F4FFE01E75AFF4F6081A2
:102E80007181828193810E944900DC01CB01F801AC
:102E90008083DE01A75BBF4FFE01E85AFF4F8081B0
:102EA0008C93FE01E75BFF4F80818A95F1F7FE016D
:102EB000E75BFF4F808380E062E041E00E949B126D
:102EC000FE01EB5BFF4F80E090E0A0E8BFE3808372
:102ED0009183A283B3838E010F5B1F4FFE01EB5BD7
:102EE000FF4F60817181828193812BEA3AEA4AE245
:102EF00050E40E941F02DC01CB01F8018083918322
:102F0000A283B383FE01EF5BFF4F608171818281F9
:102F1000938120E030E040E85FE30E9425048823AD
:102F200034F481E0FE01E05CFF4F80839DC0FE0130
:102F3000EF5BFF4F608171818281938120E030E0FF
:102F40004FE753E40E94C50318160CF07EC0FE0143
:102F5000EB5BFF4F608171818281938120E030E0E3
:102F60004AE754E40E941903DC01CB018CAF9DAF0A
:102F7000AEAFBFAF6CAD7DAD8EAD9FAD20E030E0AC
:102F80004AEF54E40E941F02DC01CB0188AF99AFE5
:102F9000AAAFBBAF68AD79AD8AAD9BAD20E030E0A4
:102FA00040E85FE30E94250488232CF481E090E050
:102FB0009FAB8EAB3FC068AD79AD8AAD9BAD20E0D5
:102FC0003FEF4FE757E40E94C50318164CF56CAD70
:102FD0007DAD8EAD9FAD20E030E040E251E40E9437
:102FE0001F02DC01CB01BC01CD010E944900DC01C4
:102FF000CB019FAB8EAB0FC088EC90E09DAB8CAB50
:103000008CA99DA90197F1F79DAB8CAB8EA99FA9C7
:1030100001979FAB8EAB8EA99FA9009769F72DC032
:1030200068AD79AD8AAD9BAD0E944900DC01CB0152
:103030009FAB8EAB8EA99FA99BAB8AAB8AA99BA99C
:103040000197F1F79BAB8AAB18C0FE01EF5BFF4F16
:1030500060817181828193810E944900DC01CB01F2
:10306000FE01E05CFF4F8083FE01E05CFF4F80814A
:1030700089AB89A98A95F1F789ABFE01EF59FF4F1A
:1030800082E060810E948E1380E090E0A0E8BFE3C0
:103090008DA79EA7AFA7B8AB6DA57EA58FA598A954
:1030A0002BEA3AEA4AE250E40E941F02DC01CB011B
:1030B00089A79AA7ABA7BCA769A57AA58BA59CA54C
:1030C00020E030E040E85FE30E94250488231CF400
:1030D00081E088A791C069A57AA58BA59CA520E071
:1030E00030E04FE753E40E94C50318160CF07BC094
:1030F0006DA57EA58FA598A920E030E04AE754E4AD
:103100000E941903DC01CB018CA39DA3AEA3BFA336
:103110006CA17DA18EA19FA120E030E04AEF54E494
:103120000E941F02DC01CB0188A399A3AAA3BBA321
:1031300068A179A18AA19BA120E030E040E85FE38B
:103140000E94250488232CF481E090E09F8F8E8FCD
:103150003FC068A179A18AA19BA120E03FEF4FE782
:1031600057E40E94C50318164CF56CA17DA18EA1F1
:103170009FA120E030E040E251E40E941F02DC0108
:10318000CB01BC01CD010E944900DC01CB019F8F26
:103190008E8F0FC088EC90E09D8F8C8F8C8D9D8DD5
:1031A0000197F1F79D8F8C8F8E8D9F8D01979F8F4B
:1031B0008E8F8E8D9F8D009769F724C068A179A1AD
:1031C0008AA19BA10E944900DC01CB019F8F8E8FB9
:1031D0008E8D9F8D9B8F8A8F8A8D9B8D0197F1F7A6
:1031E0009B8F8A8F0FC069A57AA58BA59CA50E948D
:1031F0004900DC01CB0188A788A5898F898D8A9534
:10320000F1F7898F80E062E040E00E949B1280E04D
:1032100090E0A0E8BFE38D8B9E8BAF8BB88F6D895C
:103220007E898F89988D2BEA3AEA4AE250E40E941F
:103230001F02DC01CB01898B9A8BAB8BBC8B69891C
:103240007A898B899C8920E030E040E85FE30E9426
:10325000250488231CF481E0888B91C069897A89D0
:103260008B899C8920E030E04FE753E40E94C5033E
:1032700018160CF07BC06D897E898F89988D20E0AF
:1032800030E04AE754E40E941903DC01CB018C874B
:103290009D87AE87BF876C857D858E859F8520E065
:1032A00030E04AEF54E40E941F02DC01CB01888722
:1032B0009987AA87BB87688579858A859B8520E061
:1032C00030E040E85FE30E94250488232CF481E08D
:1032D00090E09F838E833FC0688579858A859B8532
:1032E00020E03FEF4FE757E40E94C50318164CF566
:1032F0006C857D858E859F8520E030E040E251E43D
:103300000E941F02DC01CB01BC01CD010E944900DB
:10331000DC01CB019F838E830FC088EC90E09D83FE
:103320008C838C819D810197F1F79D838C838E81A5
:103330009F8101979F838E838E819F81009769F77C
:1033400024C0688579858A859B850E944900DC01B7
:10335000CB019F838E838E819F819B838A838A8109
:103360009B810197F1F79B838A830FC069897A89D2
:103370008B899C890E944900DC01CB01888B88895C
:10338000898389818A95F1F78983CF59DF4F0FB6F9
:10339000F894DEBF0FBECDBFCF91DF911F910F918B
:1033A00008950F931F93DF93CF93CDB7DEB7CD541E
:1033B000D0400FB6F894DEBF0FBECDBFFE01E35B79
:1033C000FF4F808380E061E041E00E949B12FE019C
:1033D000E75BFF4F80E090E0A0E8BFE3808391834C
:1033E000A283B3838E010B5B1F4FFE01E75BFF4F90
:1033F000608171818281938120E030E04AEF54E462
:103400000E941F02DC01CB01F80180839183A2831B
:10341000B383FE01EB5BFF4F6081718182819381F9
:1034200020E030E040E85FE30E942504882344F474
:10343000FE01ED5BFF4F81E090E09183808364C0EB
:10344000FE01EB5BFF4F608171818281938120E0FF
:103450003FEF4FE757E40E94C50318160CF043C036
:10346000FE01E75BFF4F608171818281938120E0E3
:1034700030E040E251E40E941F02DC01CB018E01EA
:103480000D5B1F4FBC01CD010E944900DC01CB0147
:10349000F801918380831FC0FE01EF5BFF4F88EC32
:1034A00090E091838083FE01EF5BFF4F80819181EB
:1034B0000197F1F7FE01EF5BFF4F91838083DE01FF
:1034C000AD5BBF4FFE01ED5BFF4F808191810197A6
:1034D00011969C938E93FE01ED5BFF4F808191814D
:1034E0000097D1F624C08E010D5B1F4FFE01EB5BF0
:1034F000FF4F60817181828193810E944900DC01CC
:10350000CB01F80191838083FE01ED5BFF4F808149
:103510009181FE01FF9691838083FE01FF96808159
:1035200091810197F1F7FE01FF969183808380E0FE
:1035300062E041E00E949B1280E090E0A0E8BFE3DF
:103540008BAF9CAFADAFBEAF6BAD7CAD8DAD9EAD67
:1035500020E030E04AEF54E40E941F02DC01CB017E
:103560008FAB98AFA9AFBAAF6FA978AD89AD9AAD5F
:1035700020E030E040E85FE30E94250488232CF43B
:1035800081E090E09EAB8DAB3FC06FA978AD89AD77
:103590009AAD20E03FEF4FE757E40E94C5031816AD
:1035A0004CF56BAD7CAD8DAD9EAD20E030E040E2E2
:1035B00051E40E941F02DC01CB01BC01CD010E943D
:1035C0004900DC01CB019EAB8DAB0FC088EC90E0D5
:1035D0009CAB8BAB8BA99CA90197F1F79CAB8BABF8
:1035E0008DA99EA901979EAB8DAB8DA99EA9009731
:1035F00069F714C06FA978AD89AD9AAD0E944900F2
:10360000DC01CB019EAB8DAB8DA99EA99AAB89AB9A
:1036100089A99AA90197F1F79AAB89ABFE01E35BFF
:10362000FF4F82E060810E948E1380E090E0A0E86E
:10363000BFE38DA79EA7AFA7B8AB6DA57EA58FA54D
:1036400098A92BEA3AEA4AE250E40E941F02DC0100
:10365000CB0189A79AA7ABA7BCA769A57AA58BA51B
:103660009CA520E030E040E85FE30E942504882329
:103670001CF481E088A791C069A57AA58BA59CA5BB
:1036800020E030E04FE753E40E94C50318160CF029
:103690007BC06DA57EA58FA598A920E030E04AE704
:1036A00054E40E941903DC01CB018CA39DA3AEA3BB
:1036B000BFA36CA17DA18EA19FA120E030E04AEFC5
:1036C00054E40E941F02DC01CB0188A399A3AAA3A2
:1036D000BBA368A179A18AA19BA120E030E040E8CA
:1036E0005FE30E94250488232CF481E090E09F8F03
:1036F0008E8F3FC068A179A18AA19BA120E03FEFF6
:103700004FE757E40E94C50318164CF56CA17DA144
:103710008EA19FA120E030E040E251E40E941F0210
:10372000DC01CB01BC01CD010E944900DC01CB01D1
:103730009F8F8E8F0FC088EC90E09D8F8C8F8C8D2B
:103740009D8D0197F1F79D8F8C8F8E8D9F8D0197A9
:103750009F8F8E8F8E8D9F8D009769F724C068A1F3
:1037600079A18AA19BA10E944900DC01CB019F8F16
:103770008E8F8E8D9F8D9B8F8A8F8A8D9B8D0197CB
:10378000F1F79B8F8A8F0FC069A57AA58BA59CA5A1
:103790000E944900DC01CB0188A788A5898F898D0B
:1037A0008A95F1F7898F80E062E040E00E949B12E9
:1037B00080E090E0A0E8BFE38D8B9E8BAF8BB88F4D
:1037C0006D897E898F89988D2BEA3AEA4AE250E426
:1037D0000E941F02DC01CB01898B9A8BAB8BBC8BC7
:1037E00069897A898B899C8920E030E040E85FE331
:1037F0000E94250488231CF481E0888B91C069898C
:103800007A898B899C8920E030E04FE753E40E945D
:10381000C50318160CF07BC06D897E898F89988D41
:1038200020E030E04AE754E40E941903DC01CB01B8
:103830008C879D87AE87BF876C857D858E859F85AC
:1038400020E030E04AEF54E40E941F02DC01CB018B
:1038500088879987AA87BB87688579858A859B85AC
:1038600020E030E040E85FE30E94250488232CF448
:1038700081E090E09F838E833FC0688579858A854B
:103880009B8520E03FEF4FE757E40E94C5031816E1
:103890004CF56C857D858E859F8520E030E040E28B
:1038A00051E40E941F02DC01CB01BC01CD010E944A
:1038B0004900DC01CB019F838E830FC088EC90E030
:1038C0009D838C838C819D810197F1F79D838C83EF
:1038D0008E819F8101979F838E838E819F81009728
:1038E00069F724C0688579858A859B850E9449008F
:1038F000DC01CB019F838E838E819F819B838A8392
:103900008A819B810197F1F79B838A830FC0698924
:103910007A898B899C890E944900DC01CB01888BC4
:103920008889898389818A95F1F78983C35BDF4F11
:103930000FB6F894DEBF0FBECDBFCF91DF911F91C0
:103940000F910895DF93CF9300D00F92CDB7DEB7DC
:103950009B838A8319820EC08981282F30E08A8157
:103960009B81FC01E20FF31F80810E94D1198981A4
:103970008F5F89838981282F30E08A819B81FC01B8
:10398000E20FF31F8081882339F70F900F900F907B
:10399000CF91DF910895DF93CF93CDB7DEB76297D4
:1039A0000FB6F894DEBF0FBECDBF9A8B898B898985
:1039B0009A899E012F5F3F4FB9014AE050E00E9473
:1039C0007F1ECE0101960E94A21C62960FB6F8944B
:1039D000DEBF0FBECDBFCF91DF910895DF93CF93B0
:1039E00000D000D00F92CDB7DEB78A836B838A8177
:1039F000282F30E03D832C838C819D81813091057F
:103A0000C1F02C813D81223031052CF48C819D81C7
:103A1000009761F019C02C813D812230310569F099
:103A20008C819D818330910561F00EC08B818983EB
:103A30000BC08B81805C898307C08B81805F898309
:103A400003C08B81805C8983898180680E941C16F9
:103A50000F900F900F900F900F90CF91DF910895DE
:103A6000DF93CF9300D000D0CDB7DEB789836A83D0
:103A70005C834B8389816A810E94EE1C8B819C81CF
:103A80000E94A21C0F900F900F900F90CF91DF918A
:103A90000895DF93CF93CDB7DEB781E00E941C1667
:103AA000CF91DF910895DF93CF93CDB7DEB76C97B9
:103AB0000FB6F894DEBF0FBECDBF0E944F060E9426
:103AC000580680E090E0A8E4B3E4898F9A8FAB8F2A
:103AD000BC8F698D7A8D8B8D9C8D20E030E04AEF14
:103AE00054E40E941F02DC01CB018D8B9E8BAF8BB7
:103AF000B88F6D897E898F89988D20E030E040E80D
:103B00005FE30E94250488232CF481E090E09C8BE5
:103B10008B8B3FC06D897E898F89988D20E03FEF28
:103B20004FE757E40E94C50318164CF5698D7A8D4E
:103B30008B8D9C8D20E030E040E251E40E941F021A
:103B4000DC01CB01BC01CD010E944900DC01CB01AD
:103B50009C8B8B8B0FC088EC90E09A8B898B89892A
:103B60009A890197F1F79A8B898B8B899C890197A8
:103B70009C8B8B8B8B899C89009769F714C06D890E
:103B80007E898F89988D0E944900DC01CB019C8B36
:103B90008B8B8B899C89988B8F878F8598890197D0
:103BA000F1F7988B8F870E94AB0A80E090E0A8E441
:103BB000B3E48B879C87AD87BE876B857C858D85BD
:103BC0009E8520E030E04AEF54E40E941F02DC01B1
:103BD000CB018F839887A987BA876F81788589857C
:103BE0009A8520E030E040E85FE30E9425048823C6
:103BF0002CF481E090E09E838D833FC06F817885B7
:103C000089859A8520E03FEF4FE757E40E94C5037E
:103C100018164CF56B857C858D859E8520E030E0FF
:103C200040E251E40E941F02DC01CB01BC01CD0146
:103C30000E944900DC01CB019E838D830FC088EC7C
:103C400090E09C838B838B819C810197F1F79C830F
:103C50008B838D819E8101979E838D838D819E8133
:103C6000009769F7A0CF6F81788589859A850E9432
:103C70004900DC01CB019E838D838D819E819A83D7
:103C8000898389819A810197F1F79A8389838BCF00
:103C90002F923F924F925F926F927F928F929F925C
:103CA000AF92BF92CF92DF92EF92FF920F931F934A
:103CB000CF93DF93CDB7DEB7CA1BDB0B0FB6F894FB
:103CC000DEBF0FBECDBF09942A88398848885F843B
:103CD0006E847D848C849B84AA84B984C884DF80AC
:103CE000EE80FD800C811B81AA81B981CE0FD11D90
:103CF0000FB6F894DEBF0FBECDBFED010895FB01F6
:103D00009F01E8944230C4F04532B4F44A3029F4BB
:103D100097FB1EF4909581959F4F642F77270E9403
:103D2000B01E805D8A330CF0895D8193CB010097D2
:103D3000A1F716F45DE251931082C9010C94A01E04
:103D4000DC01FC01672F71917723E1F7329704C002
:103D50007C916D9370836291AE17BF07C8F308958D
:103D6000AA1BBB1B51E107C0AA1FBB1FA617B707A1
:103D700010F0A61BB70B881F991F5A95A9F78095BD
:0C3D80009095BC01CD010895F894FFCF90
:103D8C0057656C636F6D6500312D746F20766F74A1
:103D9C006520666F72204100322D746F20766F742F
:103DAC006520666F72204200332D746F20766F741D
:103DBC006520666F72204300342D746F20766F740B
:103DCC006520666F72204400352D666F7220526537
:103DDC0073657400362D7468652077696E6E657234
:103DEC00206973203F00413D3020202020202042BC
:103DFC003D3000433D30202020202020443D300029
:103E0C0057726F6E6720496E70757400413D2020AB
:103E1C002020202020423D00433D20202020202037
:103E2C0020443D0052657365742E005265736574B1
:103E3C002E2E0052657365742E2E2E00546865204C
:103E4C0077696E6E65722069732041005468652035
:103E5C0077696E6E65722069732042005468652024
:103E6C0077696E6E65722069732043005468652013
:103E7C0077696E6E65722069732044000000000043
:043E8C000000000032
:00000001FF
